{
  "_format": "hh-sol-artifact-1",
  "contractName": "XpoCriptoPay",
  "sourceName": "contracts/XpoCriptoPay.sol",
  "abi": [
    {
      "anonymous": false,
      "inputs": [
        {
          "indexed": false,
          "internalType": "uint256",
          "name": "price",
          "type": "uint256"
        },
        {
          "indexed": false,
          "internalType": "address",
          "name": "tokenB",
          "type": "address"
        }
      ],
      "name": "EventPair",
      "type": "event"
    },
    {
      "anonymous": false,
      "inputs": [
        {
          "indexed": false,
          "internalType": "address",
          "name": "buyer",
          "type": "address"
        },
        {
          "indexed": false,
          "internalType": "string",
          "name": "idDatabase",
          "type": "string"
        },
        {
          "indexed": false,
          "internalType": "uint256",
          "name": "amount",
          "type": "uint256"
        },
        {
          "indexed": false,
          "internalType": "uint256",
          "name": "timestamp",
          "type": "uint256"
        },
        {
          "indexed": false,
          "internalType": "address",
          "name": "tokenAddress",
          "type": "address"
        },
        {
          "indexed": false,
          "internalType": "bool",
          "name": "isNative",
          "type": "bool"
        }
      ],
      "name": "PayTicketXpoCripto",
      "type": "event"
    },
    {
      "anonymous": false,
      "inputs": [
        {
          "indexed": true,
          "internalType": "bytes32",
          "name": "role",
          "type": "bytes32"
        },
        {
          "indexed": true,
          "internalType": "bytes32",
          "name": "previousAdminRole",
          "type": "bytes32"
        },
        {
          "indexed": true,
          "internalType": "bytes32",
          "name": "newAdminRole",
          "type": "bytes32"
        }
      ],
      "name": "RoleAdminChanged",
      "type": "event"
    },
    {
      "anonymous": false,
      "inputs": [
        {
          "indexed": true,
          "internalType": "bytes32",
          "name": "role",
          "type": "bytes32"
        },
        {
          "indexed": true,
          "internalType": "address",
          "name": "account",
          "type": "address"
        },
        {
          "indexed": true,
          "internalType": "address",
          "name": "sender",
          "type": "address"
        }
      ],
      "name": "RoleGranted",
      "type": "event"
    },
    {
      "anonymous": false,
      "inputs": [
        {
          "indexed": true,
          "internalType": "bytes32",
          "name": "role",
          "type": "bytes32"
        },
        {
          "indexed": true,
          "internalType": "address",
          "name": "account",
          "type": "address"
        },
        {
          "indexed": true,
          "internalType": "address",
          "name": "sender",
          "type": "address"
        }
      ],
      "name": "RoleRevoked",
      "type": "event"
    },
    {
      "anonymous": false,
      "inputs": [
        {
          "indexed": true,
          "internalType": "address",
          "name": "token",
          "type": "address"
        },
        {
          "indexed": true,
          "internalType": "address",
          "name": "owner",
          "type": "address"
        },
        {
          "indexed": false,
          "internalType": "uint256",
          "name": "amount",
          "type": "uint256"
        }
      ],
      "name": "WithdrawEvent",
      "type": "event"
    },
    {
      "stateMutability": "payable",
      "type": "fallback"
    },
    {
      "inputs": [],
      "name": "DEFAULT_ADMIN_ROLE",
      "outputs": [
        {
          "internalType": "bytes32",
          "name": "",
          "type": "bytes32"
        }
      ],
      "stateMutability": "view",
      "type": "function"
    },
    {
      "inputs": [
        {
          "internalType": "uint256",
          "name": "_pairId",
          "type": "uint256"
        },
        {
          "internalType": "string",
          "name": "_idDatabase",
          "type": "string"
        }
      ],
      "name": "PayNative",
      "outputs": [
        {
          "internalType": "bool",
          "name": "valid",
          "type": "bool"
        }
      ],
      "stateMutability": "payable",
      "type": "function"
    },
    {
      "inputs": [
        {
          "internalType": "uint256",
          "name": "_amountTokens",
          "type": "uint256"
        },
        {
          "internalType": "uint256",
          "name": "_pairId",
          "type": "uint256"
        },
        {
          "internalType": "string",
          "name": "_idDatabase",
          "type": "string"
        }
      ],
      "name": "PayToken",
      "outputs": [
        {
          "internalType": "bool",
          "name": "valid",
          "type": "bool"
        }
      ],
      "stateMutability": "nonpayable",
      "type": "function"
    },
    {
      "inputs": [],
      "name": "USER_ROLE",
      "outputs": [
        {
          "internalType": "bytes32",
          "name": "",
          "type": "bytes32"
        }
      ],
      "stateMutability": "view",
      "type": "function"
    },
    {
      "inputs": [
        {
          "internalType": "address",
          "name": "account",
          "type": "address"
        }
      ],
      "name": "addAdmin",
      "outputs": [],
      "stateMutability": "nonpayable",
      "type": "function"
    },
    {
      "inputs": [
        {
          "internalType": "address",
          "name": "account",
          "type": "address"
        }
      ],
      "name": "addUser",
      "outputs": [],
      "stateMutability": "nonpayable",
      "type": "function"
    },
    {
      "inputs": [
        {
          "internalType": "address",
          "name": "_oracle",
          "type": "address"
        },
        {
          "internalType": "uint256",
          "name": "_decimal",
          "type": "uint256"
        }
      ],
      "name": "getLatestPrice",
      "outputs": [
        {
          "internalType": "uint256",
          "name": "",
          "type": "uint256"
        }
      ],
      "stateMutability": "view",
      "type": "function"
    },
    {
      "inputs": [
        {
          "internalType": "uint256",
          "name": "_price_fiat",
          "type": "uint256"
        },
        {
          "internalType": "address",
          "name": "_oracle",
          "type": "address"
        },
        {
          "internalType": "uint256",
          "name": "_decimal",
          "type": "uint256"
        }
      ],
      "name": "getPriceNow",
      "outputs": [
        {
          "internalType": "uint256",
          "name": "",
          "type": "uint256"
        }
      ],
      "stateMutability": "view",
      "type": "function"
    },
    {
      "inputs": [
        {
          "internalType": "bytes32",
          "name": "role",
          "type": "bytes32"
        }
      ],
      "name": "getRoleAdmin",
      "outputs": [
        {
          "internalType": "bytes32",
          "name": "",
          "type": "bytes32"
        }
      ],
      "stateMutability": "view",
      "type": "function"
    },
    {
      "inputs": [
        {
          "internalType": "bytes32",
          "name": "role",
          "type": "bytes32"
        },
        {
          "internalType": "address",
          "name": "account",
          "type": "address"
        }
      ],
      "name": "grantRole",
      "outputs": [],
      "stateMutability": "nonpayable",
      "type": "function"
    },
    {
      "inputs": [
        {
          "internalType": "bytes32",
          "name": "role",
          "type": "bytes32"
        },
        {
          "internalType": "address",
          "name": "account",
          "type": "address"
        }
      ],
      "name": "hasRole",
      "outputs": [
        {
          "internalType": "bool",
          "name": "",
          "type": "bool"
        }
      ],
      "stateMutability": "view",
      "type": "function"
    },
    {
      "inputs": [
        {
          "internalType": "address",
          "name": "account",
          "type": "address"
        }
      ],
      "name": "isAdmin",
      "outputs": [
        {
          "internalType": "bool",
          "name": "",
          "type": "bool"
        }
      ],
      "stateMutability": "view",
      "type": "function"
    },
    {
      "inputs": [
        {
          "internalType": "address",
          "name": "account",
          "type": "address"
        }
      ],
      "name": "isUser",
      "outputs": [
        {
          "internalType": "bool",
          "name": "",
          "type": "bool"
        }
      ],
      "stateMutability": "view",
      "type": "function"
    },
    {
      "inputs": [
        {
          "internalType": "uint256",
          "name": "_pairId",
          "type": "uint256"
        }
      ],
      "name": "pair",
      "outputs": [
        {
          "components": [
            {
              "internalType": "bool",
              "name": "isNative",
              "type": "bool"
            },
            {
              "internalType": "uint256",
              "name": "price",
              "type": "uint256"
            },
            {
              "internalType": "uint8",
              "name": "phase",
              "type": "uint8"
            },
            {
              "internalType": "address",
              "name": "tokenAddress",
              "type": "address"
            },
            {
              "internalType": "bool",
              "name": "activeOracle",
              "type": "bool"
            },
            {
              "internalType": "address",
              "name": "addressOracle",
              "type": "address"
            },
            {
              "internalType": "uint256",
              "name": "addressDecimalOracle",
              "type": "uint256"
            },
            {
              "internalType": "bool",
              "name": "active",
              "type": "bool"
            }
          ],
          "internalType": "struct Ticket.Pair",
          "name": "",
          "type": "tuple"
        }
      ],
      "stateMutability": "view",
      "type": "function"
    },
    {
      "inputs": [
        {
          "internalType": "uint8",
          "name": "_type",
          "type": "uint8"
        },
        {
          "internalType": "uint8",
          "name": "_number",
          "type": "uint8"
        },
        {
          "internalType": "uint256",
          "name": "_id",
          "type": "uint256"
        },
        {
          "internalType": "bool",
          "name": "_bool",
          "type": "bool"
        },
        {
          "internalType": "address",
          "name": "_address",
          "type": "address"
        },
        {
          "internalType": "uint256",
          "name": "_value",
          "type": "uint256"
        }
      ],
      "name": "pairChange",
      "outputs": [
        {
          "internalType": "bool",
          "name": "success",
          "type": "bool"
        }
      ],
      "stateMutability": "nonpayable",
      "type": "function"
    },
    {
      "inputs": [],
      "name": "pairCount",
      "outputs": [
        {
          "internalType": "uint256",
          "name": "",
          "type": "uint256"
        }
      ],
      "stateMutability": "view",
      "type": "function"
    },
    {
      "inputs": [],
      "name": "pairList",
      "outputs": [
        {
          "components": [
            {
              "internalType": "bool",
              "name": "isNative",
              "type": "bool"
            },
            {
              "internalType": "uint256",
              "name": "price",
              "type": "uint256"
            },
            {
              "internalType": "uint8",
              "name": "phase",
              "type": "uint8"
            },
            {
              "internalType": "address",
              "name": "tokenAddress",
              "type": "address"
            },
            {
              "internalType": "bool",
              "name": "activeOracle",
              "type": "bool"
            },
            {
              "internalType": "address",
              "name": "addressOracle",
              "type": "address"
            },
            {
              "internalType": "uint256",
              "name": "addressDecimalOracle",
              "type": "uint256"
            },
            {
              "internalType": "bool",
              "name": "active",
              "type": "bool"
            }
          ],
          "internalType": "struct Ticket.Pair[]",
          "name": "",
          "type": "tuple[]"
        }
      ],
      "stateMutability": "view",
      "type": "function"
    },
    {
      "inputs": [
        {
          "internalType": "bool",
          "name": "_isNative",
          "type": "bool"
        },
        {
          "internalType": "uint256",
          "name": "_price",
          "type": "uint256"
        },
        {
          "internalType": "uint8",
          "name": "_phase",
          "type": "uint8"
        },
        {
          "internalType": "address",
          "name": "_tokenAddress",
          "type": "address"
        },
        {
          "internalType": "bool",
          "name": "_activeOracle",
          "type": "bool"
        },
        {
          "internalType": "address",
          "name": "_addressOracle",
          "type": "address"
        },
        {
          "internalType": "uint256",
          "name": "_addressDecimalOracle",
          "type": "uint256"
        },
        {
          "internalType": "bool",
          "name": "_active",
          "type": "bool"
        }
      ],
      "name": "registerPair",
      "outputs": [
        {
          "internalType": "bool",
          "name": "",
          "type": "bool"
        }
      ],
      "stateMutability": "nonpayable",
      "type": "function"
    },
    {
      "inputs": [
        {
          "internalType": "address",
          "name": "account",
          "type": "address"
        }
      ],
      "name": "removeUser",
      "outputs": [],
      "stateMutability": "nonpayable",
      "type": "function"
    },
    {
      "inputs": [],
      "name": "renounceAdmin",
      "outputs": [],
      "stateMutability": "nonpayable",
      "type": "function"
    },
    {
      "inputs": [
        {
          "internalType": "bytes32",
          "name": "role",
          "type": "bytes32"
        },
        {
          "internalType": "address",
          "name": "account",
          "type": "address"
        }
      ],
      "name": "renounceRole",
      "outputs": [],
      "stateMutability": "nonpayable",
      "type": "function"
    },
    {
      "inputs": [
        {
          "internalType": "bytes32",
          "name": "role",
          "type": "bytes32"
        },
        {
          "internalType": "address",
          "name": "account",
          "type": "address"
        }
      ],
      "name": "revokeRole",
      "outputs": [],
      "stateMutability": "nonpayable",
      "type": "function"
    },
    {
      "inputs": [
        {
          "internalType": "bytes4",
          "name": "interfaceId",
          "type": "bytes4"
        }
      ],
      "name": "supportsInterface",
      "outputs": [
        {
          "internalType": "bool",
          "name": "",
          "type": "bool"
        }
      ],
      "stateMutability": "view",
      "type": "function"
    },
    {
      "inputs": [
        {
          "internalType": "uint256",
          "name": "amount",
          "type": "uint256"
        }
      ],
      "name": "withdrawMaticOwner",
      "outputs": [],
      "stateMutability": "payable",
      "type": "function"
    },
    {
      "inputs": [
        {
          "internalType": "address",
          "name": "_token",
          "type": "address"
        },
        {
          "internalType": "uint256",
          "name": "_amount",
          "type": "uint256"
        }
      ],
      "name": "withdrawTokenOnwer",
      "outputs": [],
      "stateMutability": "nonpayable",
      "type": "function"
    },
    {
      "stateMutability": "payable",
      "type": "receive"
    }
  ],
  "bytecode": "0x60806040523480156200001157600080fd5b506200001f60003362000057565b6200004c7f2db9fd3d099848027c2383d0a083396f6c41510d7acfd92adc99b6cffcf31e96600062000067565b60006003556200013c565b620000638282620000b4565b5050565b6000828152600160208190526040808320909101805490849055905190918391839186917fbd79b86ffe0ab8e8776151514217cd7cacd52c909f66475c3af44e129f0b00ff9190a4505050565b60008281526001602090815260408083206001600160a01b038516845290915290205460ff16620000635760008281526001602081815260408084206001600160a01b0386168086529252808420805460ff19169093179092559051339285917f2f8788117e7eff1d82e926ec794901d17c78024a50270940304540a733656f0d9190a45050565b612342806200014c6000396000f3fe60806040526004361061015b5760003560e01c806351978a6b116100c85780638bad0c0a11610084578063a217fddf11610061578063a217fddf1461041a578063a973c1f71461042f578063d547741f1461044f578063fd98e3631461046f57005b80638bad0c0a146103c557806391d14854146103da57806398575188146103fa57005b806351978a6b1461030357806352a15189146103255780635a7bd8ab14610345578063645751af146103585780637048027514610385578063874f3017146103a557005b80632f2ff15d116101175780632f2ff15d1461025057806336568abe14610270578063398723cb146102905780633dc5306b146102b05780634209fff1146102c3578063421b2d8b146102e357005b806301ffc9a71461016457806313072f0d1461019957806313119161146101b9578063173fd1db146101e9578063248a9ca3146101ff57806324d7806c1461023057005b3661016257005b005b34801561017057600080fd5b5061018461017f366004611b09565b61048f565b60405190151581526020015b60405180910390f35b3480156101a557600080fd5b506101846101b4366004611b6c565b6104c6565b3480156101c557600080fd5b506101db6000805160206122ed83398151915281565b604051908152602001610190565b3480156101f557600080fd5b506101db60035481565b34801561020b57600080fd5b506101db61021a366004611bd8565b6000908152600160208190526040909120015490565b34801561023c57600080fd5b5061018461024b366004611bf1565b610682565b34801561025c57600080fd5b5061016261026b366004611c0c565b61068e565b34801561027c57600080fd5b5061016261028b366004611c0c565b6106b9565b34801561029c57600080fd5b506101846102ab366004611c38565b610737565b6101626102be366004611bd8565b6108e4565b3480156102cf57600080fd5b506101846102de366004611bf1565b6109d2565b3480156102ef57600080fd5b506101626102fe366004611bf1565b6109ec565b34801561030f57600080fd5b50610318610a2c565b6040516101909190611d33565b34801561033157600080fd5b506101db610340366004611d82565b610b4b565b610184610353366004611e4f565b610c67565b34801561036457600080fd5b50610378610373366004611bd8565b610e4c565b6040516101909190611e96565b34801561039157600080fd5b506101626103a0366004611bf1565b610f29565b3480156103b157600080fd5b506101db6103c0366004611ea5565b610f59565b3480156103d157600080fd5b50610162610f89565b3480156103e657600080fd5b506101846103f5366004611c0c565b610f96565b34801561040657600080fd5b50610162610415366004611bf1565b610fc1565b34801561042657600080fd5b506101db600081565b34801561043b57600080fd5b5061018461044a366004611eda565b610ffe565b34801561045b57600080fd5b5061016261046a366004611c0c565b6115e1565b34801561047b57600080fd5b5061016261048a366004611d82565b611607565b60006001600160e01b03198216637965db0b60e01b14806104c057506301ffc9a760e01b6001600160e01b03198316145b92915050565b60006104d1336109d2565b6105195760405162461bcd60e51b81526020600482015260146024820152732932b9ba3934b1ba32b2103a37903ab9b2b9399760611b60448201526064015b60405180910390fd5b8660ff166001141561053e576000858152600260205260409020600101829055610675565b8660ff166002141561057f576000858152600260208190526040909120018054610100600160a81b0319166101006001600160a01b03861602179055610675565b8660ff16600314156105af57600085815260026020819052604090912001805460ff191660ff8816179055610675565b8660ff16600414156105e757600085815260026020819052604090912001805460ff60a81b1916600160a81b86151502179055610675565b8660ff166005141561062257600085815260026020526040902060030180546001600160a01b0319166001600160a01b038516179055610675565b8660ff166006141561064b57600085815260026020526040902060ff8716600490910155610675565b8660ff1660071415610675576000858152600260205260409020600501805460ff19168515151790555b5060019695505050505050565b60006104c08183610f96565b600082815260016020819052604090912001546106aa8161176a565b6106b48383611774565b505050565b6001600160a01b03811633146107295760405162461bcd60e51b815260206004820152602f60248201527f416363657373436f6e74726f6c3a2063616e206f6e6c792072656e6f756e636560448201526e103937b632b9903337b91039b2b63360891b6064820152608401610510565b61073382826117df565b5050565b6000610742336109d2565b6107855760405162461bcd60e51b81526020600482015260146024820152732932b9ba3934b1ba32b2103a37903ab9b2b9399760611b6044820152606401610510565b6040805161010080820183528b1515825260208083018c815260ff808d168587019081526001600160a01b03808e16606088019081528d1515608089019081528d831660a08a0190815260c08a018e81528d151560e08c0190815260038054600090815260029b8c90529d8e209c518d5490151560ff19918216178e55995160018e01559651998c018054955194511515600160a81b0260ff60a81b19958816909c026001600160a81b03199096169a9098169990991793909317919091169790971790935594518682018054919096166001600160a01b031990911617909455516004850155905160059093018054931515939091169290921790915580549161088f83611f40565b9091555050604080518981526001600160a01b03881660208201527fcbf13245cacb426a36a2f018dab47235e3c859a500a083e13cb00de51da9455b910160405180910390a150600198975050505050505050565b6108ed33610682565b6109095760405162461bcd60e51b815260040161051090611f5b565b604051339082156108fc029083906000818181858888f193505050506109975760405162461bcd60e51b815260206004820152603c60248201527f57697468647261774d617469634f776e65723a204661696c656420746f20747260448201527f616e7366657220746f6b656e20746f2066656520636f6e7472616374000000006064820152608401610510565b60405181815233906000907f93cb7b4ba12c5bb07f02e52c4e43788d8f4db1e66e9d30aaaeffc5ab325b810c9060200160405180910390a350565b60006104c06000805160206122ed83398151915283610f96565b6109f533610682565b610a115760405162461bcd60e51b815260040161051090611f5b565b610a296000805160206122ed8339815191528261068e565b50565b6060600060035467ffffffffffffffff811115610a4b57610a4b611dac565b604051908082528060200260200182016040528015610a8457816020015b610a71611ac5565b815260200190600190039081610a695790505b50905060005b600354811015610b455760008181526002602081815260409283902083516101008082018652825460ff9081161515835260018401549483019490945293820154808416958201959095529284046001600160a01b039081166060850152600160a81b909404821615156080840152600381015490931660a0830152600483015460c0830152600583015416151560e08201528351849084908110610b3157610b31611f8a565b602090810291909101015250600101610a8a565b50919050565b60006001600160a01b038316610bc95760405162461bcd60e51b815260206004820152603760248201527f4f7261636c652061646472657373206d757374206265207468652073616d652060448201527f61732074686520636f6e747261637420616464726573730000000000000000006064820152608401610510565b60008390506000816001600160a01b031663feaf968c6040518163ffffffff1660e01b815260040160a06040518083038186803b158015610c0957600080fd5b505afa158015610c1d573d6000803e3d6000fd5b505050506040513d601f19601f82011682018060405250810190610c419190611fba565b50505091505083600a610c5491906120ee565b610c5e90826120fa565b95945050505050565b6000805460ff1615610cac5760405162461bcd60e51b815260206004820152600e60248201526d4e6f2072652d656e7472616e637960901b6044820152606401610510565b6000805460ff1916600117905534610d155760405162461bcd60e51b815260206004820152602660248201527f5061794e61746976653a2053656e6420424e4220746f2062757920736f6d6520604482015265746f6b656e7360d01b6064820152608401610510565b6000838152600260205260409020600581015460ff16610d775760405162461bcd60e51b815260206004820152601d60248201527f5061794e61746976653a2050616972206973206e6f74206163746976650000006044820152606401610510565b6000610da382600101548360030160009054906101000a90046001600160a01b03168460040154610f59565b905080341015610df55760405162461bcd60e51b815260206004820152601d60248201527f5061794e61746976653a20696e73756666696369656e7420746f6b656e0000006044820152606401610510565b7f7dce0166523099c2f28ab38d9e39538d3084e2483193d186f7c081df961d480033853442306001604051610e2f96959493929190612175565b60405180910390a150506000805460ff1916905550600192915050565b610e54611ac5565b6003548210610e9c5760405162461bcd60e51b81526020600482015260146024820152731c185a5c8e8814185a5c881b9bdd08199bdd5b9960621b6044820152606401610510565b5060009081526002602081815260409283902083516101008082018652825460ff9081161515835260018401549483019490945293820154808416958201959095526001600160a01b0393850484166060820152600160a81b909404821615156080850152600381015490921660a0840152600482015460c084015260059091015416151560e082015290565b610f3233610682565b610f4e5760405162461bcd60e51b815260040161051090611f5b565b610a2960008261068e565b6000610f658383610b4b565b610f7785670de0b6b3a76400006120fa565b610f8191906121c0565b949350505050565b610f946000336106b9565b565b60009182526001602090815260408084206001600160a01b0393909316845291905290205460ff1690565b610fca33610682565b610fe65760405162461bcd60e51b815260040161051090611f5b565b610a296000805160206122ed833981519152826115e1565b6000805460ff16156110435760405162461bcd60e51b815260206004820152600e60248201526d4e6f2072652d656e7472616e637960901b6044820152606401610510565b6000805460ff19166001179055836110bc5760405162461bcd60e51b815260206004820152603660248201527f506179546f6b656e3a205370656369667920616e20616d6f756e74206f6620746044820152756f6b656e2067726561746572207468616e207a65726f60501b6064820152608401610510565b6000838152600260205260409020600581015460ff1661111e5760405162461bcd60e51b815260206004820152601c60248201527f506179546f6b656e3a2050616972206973206e6f7420616374697665000000006044820152606401610510565b600061114a82600101548360030160009054906101000a90046001600160a01b03168460040154610f59565b905060006111e2828460020160019054906101000a90046001600160a01b03166001600160a01b031663313ce5676040518163ffffffff1660e01b815260040160206040518083038186803b1580156111a257600080fd5b505afa1580156111b6573d6000803e3d6000fd5b505050506040513d601f19601f820116820180604052508101906111da91906121e2565b60ff16611846565b90508087101561124b5760405162461bcd60e51b815260206004820152602e60248201527f506179546f6b656e3a2054686520616d6f756e74206f6620746f6b656e73206960448201526d1cc81a5b9cdd59999a58da595b9d60921b6064820152608401610510565b6002830154879061010090046001600160a01b03166370a08231336040516001600160e01b031960e084901b1681526001600160a01b03909116600482015260240160206040518083038186803b1580156112a557600080fd5b505afa1580156112b9573d6000803e3d6000fd5b505050506040513d601f19601f820116820180604052508101906112dd91906121ff565b10156113645760405162461bcd60e51b815260206004820152604a60248201527f506179546f6b656e3a20596f75722062616c616e6365206973206c6f7765722060448201527f7468616e2074686520616d6f756e74206f6620746f6b656e7320796f752077616064820152691b9d081d1bc81cd95b1b60b21b608482015260a401610510565b6002830154879061010090046001600160a01b031663dd62ed3e336040516001600160e01b031960e084901b1681526001600160a01b03909116600482015230602482015260440160206040518083038186803b1580156113c457600080fd5b505afa1580156113d8573d6000803e3d6000fd5b505050506040513d601f19601f820116820180604052508101906113fc91906121ff565b10156114605760405162461bcd60e51b815260206004820152602d60248201527f506179546f6b656e3a20596f7520646f6e2774206861766520656e6f7567682060448201526c746f6b656e7320746f2062757960981b6064820152608401610510565b600283015461010090046001600160a01b03166323b872dd336040516001600160e01b031960e084901b1681526001600160a01b039091166004820152306024820152604481018a9052606401602060405180830381600087803b1580156114c757600080fd5b505af11580156114db573d6000803e3d6000fd5b505050506040513d601f19601f820116820180604052508101906114ff9190612218565b6115715760405162461bcd60e51b815260206004820152603760248201527f506179546f6b656e3a204661696c656420746f207472616e7366657220746f6b60448201527f656e732066726f6d207573657220746f2076656e646f720000000000000000006064820152608401610510565b7f7dce0166523099c2f28ab38d9e39538d3084e2483193d186f7c081df961d4800338689428760020160019054906101000a90046001600160a01b031660006040516115c296959493929190612175565b60405180910390a150506000805460ff19169055506001949350505050565b600082815260016020819052604090912001546115fd8161176a565b6106b483836117df565b61161033610682565b61162c5760405162461bcd60e51b815260040161051090611f5b565b6001600160a01b03821663a9059cbb336040516001600160e01b031960e084901b1681526001600160a01b03909116600482015260248101849052604401602060405180830381600087803b15801561168457600080fd5b505af1158015611698573d6000803e3d6000fd5b505050506040513d601f19601f820116820180604052508101906116bc9190612218565b6117265760405162461bcd60e51b815260206004820152603560248201527f5769746864726177546f6b656e4f6e7765723a204661696c656420746f20747260448201527430b739b332b9103a37b5b2b7103a379027b73bb2b960591b6064820152608401610510565b60405181815233906001600160a01b038416907f93cb7b4ba12c5bb07f02e52c4e43788d8f4db1e66e9d30aaaeffc5ab325b810c9060200160405180910390a35050565b610a2981336118b2565b61177e8282610f96565b6107335760008281526001602081815260408084206001600160a01b0386168086529252808420805460ff19169093179092559051339285917f2f8788117e7eff1d82e926ec794901d17c78024a50270940304540a733656f0d9190a45050565b6117e98282610f96565b156107335760008281526001602090815260408083206001600160a01b0385168085529252808320805460ff1916905551339285917ff6391f5c32d9c69d2a47ea670b442974b53935d1edc7fd64eb21e047a839171b9190a45050565b600081601214156118585750816104c0565b816008141561187757611870836402540be400611916565b90506104c0565b816006141561188f576118708364e8d4a51000611916565b81600314156118a9576118708366038d7ea4c68000611916565b50600092915050565b6118bc8282610f96565b610733576118d4816001600160a01b03166014611929565b6118df836020611929565b6040516020016118f0929190612235565b60408051601f198184030181529082905262461bcd60e51b8252610510916004016122aa565b600061192282846121c0565b9392505050565b606060006119388360026120fa565b6119439060026122bd565b67ffffffffffffffff81111561195b5761195b611dac565b6040519080825280601f01601f191660200182016040528015611985576020820181803683370190505b509050600360fc1b816000815181106119a0576119a0611f8a565b60200101906001600160f81b031916908160001a905350600f60fb1b816001815181106119cf576119cf611f8a565b60200101906001600160f81b031916908160001a90535060006119f38460026120fa565b6119fe9060016122bd565b90505b6001811115611a76576f181899199a1a9b1b9c1cb0b131b232b360811b85600f1660108110611a3257611a32611f8a565b1a60f81b828281518110611a4857611a48611f8a565b60200101906001600160f81b031916908160001a90535060049490941c93611a6f816122d5565b9050611a01565b5083156119225760405162461bcd60e51b815260206004820181905260248201527f537472696e67733a20686578206c656e67746820696e73756666696369656e746044820152606401610510565b6040805161010081018252600080825260208201819052918101829052606081018290526080810182905260a0810182905260c0810182905260e081019190915290565b600060208284031215611b1b57600080fd5b81356001600160e01b03198116811461192257600080fd5b60ff81168114610a2957600080fd5b8015158114610a2957600080fd5b80356001600160a01b0381168114611b6757600080fd5b919050565b60008060008060008060c08789031215611b8557600080fd5b8635611b9081611b33565b95506020870135611ba081611b33565b9450604087013593506060870135611bb781611b42565b9250611bc560808801611b50565b915060a087013590509295509295509295565b600060208284031215611bea57600080fd5b5035919050565b600060208284031215611c0357600080fd5b61192282611b50565b60008060408385031215611c1f57600080fd5b82359150611c2f60208401611b50565b90509250929050565b600080600080600080600080610100898b031215611c5557600080fd5b8835611c6081611b42565b9750602089013596506040890135611c7781611b33565b9550611c8560608a01611b50565b94506080890135611c9581611b42565b9350611ca360a08a01611b50565b925060c0890135915060e0890135611cba81611b42565b809150509295985092959890939650565b8051151582526020810151602083015260ff6040820151166040830152606081015160018060a01b0380821660608501526080830151151560808501528060a08401511660a0850152505060c081015160c083015260e08101516106b460e084018215159052565b6020808252825182820181905260009190848201906040850190845b81811015611d7657611d62838551611ccb565b928401926101009290920191600101611d4f565b50909695505050505050565b60008060408385031215611d9557600080fd5b611d9e83611b50565b946020939093013593505050565b634e487b7160e01b600052604160045260246000fd5b600082601f830112611dd357600080fd5b813567ffffffffffffffff80821115611dee57611dee611dac565b604051601f8301601f19908116603f01168101908282118183101715611e1657611e16611dac565b81604052838152866020858801011115611e2f57600080fd5b836020870160208301376000602085830101528094505050505092915050565b60008060408385031215611e6257600080fd5b82359150602083013567ffffffffffffffff811115611e8057600080fd5b611e8c85828601611dc2565b9150509250929050565b61010081016104c08284611ccb565b600080600060608486031215611eba57600080fd5b83359250611eca60208501611b50565b9150604084013590509250925092565b600080600060608486031215611eef57600080fd5b8335925060208401359150604084013567ffffffffffffffff811115611f1457600080fd5b611f2086828701611dc2565b9150509250925092565b634e487b7160e01b600052601160045260246000fd5b6000600019821415611f5457611f54611f2a565b5060010190565b6020808252601590820152742932b9ba3934b1ba32b2103a379030b236b4b7399760591b604082015260600190565b634e487b7160e01b600052603260045260246000fd5b805169ffffffffffffffffffff81168114611b6757600080fd5b600080600080600060a08688031215611fd257600080fd5b611fdb86611fa0565b9450602086015193506040860151925060608601519150611ffe60808701611fa0565b90509295509295909350565b600181815b8085111561204557816000190482111561202b5761202b611f2a565b8085161561203857918102915b93841c939080029061200f565b509250929050565b60008261205c575060016104c0565b81612069575060006104c0565b816001811461207f5760028114612089576120a5565b60019150506104c0565b60ff84111561209a5761209a611f2a565b50506001821b6104c0565b5060208310610133831016604e8410600b84101617156120c8575081810a6104c0565b6120d2838361200a565b80600019048211156120e6576120e6611f2a565b029392505050565b6000611922838361204d565b600081600019048311821515161561211457612114611f2a565b500290565b60005b8381101561213457818101518382015260200161211c565b83811115612143576000848401525b50505050565b60008151808452612161816020860160208601612119565b601f01601f19169290920160200192915050565b600060018060a01b03808916835260c0602084015261219760c0840189612149565b604084019790975260608301959095525091909216608082015290151560a09091015292915050565b6000826121dd57634e487b7160e01b600052601260045260246000fd5b500490565b6000602082840312156121f457600080fd5b815161192281611b33565b60006020828403121561221157600080fd5b5051919050565b60006020828403121561222a57600080fd5b815161192281611b42565b7f416363657373436f6e74726f6c3a206163636f756e742000000000000000000081526000835161226d816017850160208801612119565b7001034b99036b4b9b9b4b733903937b6329607d1b601791840191820152835161229e816028840160208801612119565b01602801949350505050565b6020815260006119226020830184612149565b600082198211156122d0576122d0611f2a565b500190565b6000816122e4576122e4611f2a565b50600019019056fe2db9fd3d099848027c2383d0a083396f6c41510d7acfd92adc99b6cffcf31e96a264697066735822122000d7e841a5afb16596f91e7c35c75dabef21b952f9081a40f6ea5f835126ad3864736f6c63430008090033",
  "linkReferences": {},
  "deployedLinkReferences": {}
}